S01700004763634170706C69636174696F6E372E7372656355
S113000012C02CC02BC02AC029C028C027C026C0BB
S113001025C075C023C0D1C021C020C01FC01EC0D0
S11300201DC01CC01BC011241FBECFE5D4E0DEBF21
S1130030CDBF10E0A0E6B0E0EEE3F2E002C0059030
S11300400D92A036B107D9F720E0A0E6B0E001C0D8
S11300501D92AE36B207E1F7DBD0EFC0D1CF10BCB2
S113006083E389B986E880BD88E98AB90895379A17
S1130070811105C091E0662349F090E007C081300A
S113008021F4613029F090E001C090E090FF02C0BB
S113009090E697B9813029F4611109C083E687B9E4
S11300A006C0811104C0613011F482E687B9369A22
S11300B008958FB5816A8FBD8EB582608EBD17BCE1
S11300C016BC1BBC1ABC19BC18BC089587B3866047
S11300D087BBA49A81B3806C81BB81B3806381BBED
S11300E0089589B7816089BF83B7826083BF08950B
S11300F05D9BFECF8CB95E9BFECF5E9A08951F92E6
S11301000F920FB60F9211242F933F934F935F9347
S11301106F937F938F939F93AF93BF93EF93FF93CB
S1130120809160008F5F80936000823020F1AC9AF0
S113013080916000833080F11092600060E081E083
S113014096DF85B18093670061E080E090DF95B130
S1130150909369008091680020916700821B8093CE
S11301606D0020916200921B90936300C1DF809127
S11301706300BEDF11C0AC9880916000882361F0F9
S113018060E081E074DF85B18093680061E080E025
S11301906EDF85B180936200FF91EF91BF91AF91C3
S11301A09F918F917F916F915F914F913F912F918B
S11301B00F900FBE0F901F9018951F920F920FB6BD
S11301C00F9211242F933F934F935F936F937F93D9
S11301D08F939F93AF93BF93EF93FF9392B380E179
S11301E0892782BB8CB1863611F48DE781DFFF91BC
S11301F0EF91BF91AF919F918F917F916F915F919B
S11302004F913F912F910F900FBE0F901F90189513
S113021010926C0078945ADF4CDF63DF60E081E079
S113022026DF1DDF8091640090916C009111FFCF57
S11102308093640080E090E00895F894FFCF7E
S9030000FC
