S01700004763634170706C69636174696F6E372E7372656355
S113000012C021C020C01FC01EC01DC01CC01BC008
S11300101AC087C018C0F0C016C015C014C013C0E1
S113002012C011C010C011241FBECFE5D4E0DEBF42
S1130030CDBF20E0A0E6B0E001C01D92AB36B20710
S1130040E1F757D016C1DCCF10BC83E389B986E849
S113005080BD88E98AB90895379A811105C091E075
S1130060662349F090E007C0813021F4613029F023
S113007090E001C090E090FF02C090E697B9813013
S113008029F4611109C083E687B906C0811104C04F
S1130090613011F482E687B9369A08958FB5816A82
S11300A08FBD8EB582608EBD17BC16BC1BBC1ABC3E
S11300B019BC18BC089587B3866087BBA49A81B322
S11300C0806C81BB81B3806381BB089589B78160F3
S11300D089BF83B7856083BF08951BBC6ABD19BC03
S11300E088BD08955D9BFECF8CB95E9BFECF5E9A62
S11300F008957894E0DFD2DFE9DF60E081E0ACDFEF
S1130100A3DF949A80916A00843018F060E08FEF46
S1130110E4DF809163008430A8F36FEF80E0DDDFDB
S1130120F1CF1F920F920FB60F9211242F933F938A
S11301304F935F936F937F938F939F93AF93BF93EB
S1130140EF93FF93809161008F5F80936100823011
S113015088F1AC9A809161008330E8F110926100DB
S113016060E081E079DF85B18093650061E080E043
S113017073DF95B1909369008091620020916500CE
S1130180382F321B30936A0020916600921B9093A3
S11301906300A8DF80916500A5DF80916A00A2DF7B
S11301A0809169009FDF809166009CDF80916300ED
S11301B099DF11C0AC9880916100882361F060E000
S11301C081E04ADF85B18093620061E080E044DF32
S11301D085B180936600FF91EF91BF91AF919F919C
S11301E08F917F916F915F914F913F912F910F90DC
S11301F00FBE0F901F9018951F920F920FB60F927B
S113020011242F933F934F935F936F937F938F9317
S11302109F93AF93BF93EF93FF938CB18093600050
S1130220823649F460E080E058DFAC98959A949A5D
S113023082B3806C82BB80916000833649F46FEF97
S11302408FEF4BDFAC989598949882B3806C82BB07
S1130250FF91EF91BF91AF919F918F917F916F919A
S11302605F914F913F912F910F900FBE0F901F9070
S10902701895F894FFCF7D
S9030000FC
