:1000000012C02CC02BC02AC029C028C027C026C0BF
:1000100025C096C023C0FFC021C020C01FC01EC085
:100020001DC01CC01BC011241FBECFE5D4E0DEBF25
:10003000CDBF10E0A0E6B0E0E0E9F2E002C005903C
:100040000D92A236B107D9F720E0A2E6B0E001C0D8
:100050001D92AD36B207E1F757D018C1D1CF10BC11
:1000600083E389B986E880BD88E98AB90895379A1B
:10007000811105C091E0662349F090E007C081300E
:1000800021F4613029F090E001C090E090FF02C0BF
:1000900090E697B9813029F4611109C083E687B9E8
:1000A00006C0811104C0613011F482E687B9369A26
:1000B00008958FB5816A8FBD8EB582608EBD17BCE5
:1000C00016BC1BBC1ABC19BC18BC089587B386604B
:1000D00087BBA49A81B3806C81BB81B3806381BBF1
:1000E000089589B7816089BF83B7856083BF08950C
:1000F0001BBC6ABD19BC88BD08955D9BFECF8CB941
:100100005E9BFECF5E9A08957894E0DFD2DFE9DF50
:1001100060E081E0ACDFA3DF949A90916C00809165
:100120006000891718F460E08FEFE2DF90916500BE
:1001300080916000891788F76FEF80E0D9DFEDCFFD
:100140001F920F920FB60F9211242F933F934F934C
:100150005F936F937F938F939F93AF93BF93EF932F
:10016000FF93809163008F5F80936300823088F1FA
:10017000AC9A809163008330E8F11092630060E0F4
:1001800081E075DF85B18093670061E080E06FDF1B
:1001900095B1909369008091680020916700382F95
:1001A000321B30936C0020916400921B9093650089
:1001B000A4DF80916700A1DF80916C009EDF8091B9
:1001C00069009BDF8091640098DF8091650095DF76
:1001D00011C0AC9880916300882361F060E081E0F9
:1001E00046DF85B18093680061E080E040DF85B143
:1001F00080936400FF91EF91BF91AF919F918F9198
:100200007F916F915F914F913F912F910F900FBE12
:100210000F901F9018951F920F920FB60F921124F6
:100220002F933F934F935F936F937F938F939F93FE
:10023000AF93BF93EF93FF938CB1809362008236AC
:1002400039F460E080E054DFAC9882B3806F82BB09
:1002500080916200833649F46FEF8FEF49DF85B3F9
:100260008F7C85BB82B3806C82BBFF91EF91BF9185
:10027000AF919F918F917F916F915F914F913F913E
:100280002F910F900FBE0F901F901895F894FFCFED
:02029000030069
:00000001FF
